{
  "contractName": "Proposition",
  "abi": [
    {
      "inputs": [],
      "stateMutability": "nonpayable",
      "type": "constructor"
    },
    {
      "inputs": [],
      "name": "wager_pool",
      "outputs": [
        {
          "internalType": "uint256",
          "name": "",
          "type": "uint256"
        }
      ],
      "stateMutability": "view",
      "type": "function"
    },
    {
      "inputs": [
        {
          "internalType": "address",
          "name": "newMember",
          "type": "address"
        }
      ],
      "name": "addMember",
      "outputs": [],
      "stateMutability": "nonpayable",
      "type": "function"
    },
    {
      "inputs": [
        {
          "internalType": "uint256",
          "name": "wager",
          "type": "uint256"
        }
      ],
      "name": "addBet",
      "outputs": [],
      "stateMutability": "nonpayable",
      "type": "function"
    },
    {
      "inputs": [],
      "name": "getMyWager",
      "outputs": [
        {
          "internalType": "uint256",
          "name": "",
          "type": "uint256"
        }
      ],
      "stateMutability": "view",
      "type": "function"
    }
  ],
  "bytecode": "0x608060405234801561001057600080fd5b5060016000803373ffffffffffffffffffffffffffffffffffffffff1673ffffffffffffffffffffffffffffffffffffffff16815260200190815260200160002060006101000a81548160ff021916908315150217905550610476806100776000396000f3fe608060405234801561001057600080fd5b506004361061004c5760003560e01c806372c4fee5146100515780638ef483eb1461006f578063ca6d56dc1461008d578063cdaba786146100d1575b600080fd5b6100596100ff565b6040518082815260200191505060405180910390f35b610077610105565b6040518082815260200191505060405180910390f35b6100cf600480360360208110156100a357600080fd5b81019080803573ffffffffffffffffffffffffffffffffffffffff16906020019092919050505061020a565b005b6100fd600480360360208110156100e757600080fd5b8101908080359060200190929190505050610322565b005b60025481565b60008060003373ffffffffffffffffffffffffffffffffffffffff1673ffffffffffffffffffffffffffffffffffffffff16815260200190815260200160002060009054906101000a900460ff166101c5576040517f08c379a00000000000000000000000000000000000000000000000000000000081526004018080602001828103825260168152602001807f43616c6c6572206973206e6f742061206d656d6265720000000000000000000081525060200191505060405180910390fd5b600160003373ffffffffffffffffffffffffffffffffffffffff1673ffffffffffffffffffffffffffffffffffffffff16815260200190815260200160002054905090565b6000803373ffffffffffffffffffffffffffffffffffffffff1673ffffffffffffffffffffffffffffffffffffffff16815260200190815260200160002060009054906101000a900460ff166102c8576040517f08c379a00000000000000000000000000000000000000000000000000000000081526004018080602001828103825260168152602001807f43616c6c6572206973206e6f742061206d656d6265720000000000000000000081525060200191505060405180910390fd5b60016000808373ffffffffffffffffffffffffffffffffffffffff1673ffffffffffffffffffffffffffffffffffffffff16815260200190815260200160002060006101000a81548160ff02191690831515021790555050565b6000803373ffffffffffffffffffffffffffffffffffffffff1673ffffffffffffffffffffffffffffffffffffffff16815260200190815260200160002060009054906101000a900460ff166103e0576040517f08c379a00000000000000000000000000000000000000000000000000000000081526004018080602001828103825260168152602001807f43616c6c6572206973206e6f742061206d656d6265720000000000000000000081525060200191505060405180910390fd5b80600160003373ffffffffffffffffffffffffffffffffffffffff1673ffffffffffffffffffffffffffffffffffffffff16815260200190815260200160002060008282540192505081905550806002600082825401925050819055505056fea26469706673582212202cfd656ca9067ba07bd5d43fe43e4acb469b754325e20c9e1a782d83063c8e7a64736f6c63430007030033",
  "immutableReferences": {},
  "source": "pragma solidity >=0.7.0 <0.8.0;\n\ncontract Proposition {\n\n    mapping (address => bool) members;\n    mapping (address => uint256) member_wagers;\n    uint256 public wager_pool;\n    \n    // modifier to check if caller is a member\n    modifier isMember() {\n        // If the first argument of 'require' evaluates to 'false', execution terminates and all\n        // changes to the state and to Ether balances are reverted.\n        // This used to consume all gas in old EVM versions, but not anymore.\n        // It is often a good idea to use 'require' to check if functions are called correctly.\n        // As a second argument, you can also provide an explanation about what went wrong.\n        require(members[msg.sender], \"Caller is not a member\"); // or however you do a quick array search in Solidity...\n        _;\n    }\n    \n    /**\n     * @dev Set contract deployer as owner\n     */\n    constructor() {\n        members[msg.sender] = true;\n    }\n\n    /**\n     * @dev Add member of group\n     * @param newMember address of new member\n     */\n    function addMember(address newMember) public isMember {\n        members[newMember] = true;\n    }\n\n    function addBet(uint256 wager) public isMember {\n        member_wagers[msg.sender] += wager;\n        wager_pool += wager;\n    }\n\n    function getMyWager() public view isMember returns (uint256) {\n        return member_wagers[msg.sender];\n    }\n}\n",
  "sourcePath": "/home/adhurjaty/Apps/prediction-app/src/truffle/contracts/Proposition.sol",
  "compiler": {
    "name": "solc",
    "version": "0.7.3+commit.9bfce1f6.Emscripten.clang"
  },
  "schemaVersion": "3.3.4",
  "updatedAt": "2021-03-19T02:40:07.762Z",
  "devdoc": {
    "kind": "dev",
    "methods": {
      "addMember(address)": {
        "details": "Add member of group",
        "params": {
          "newMember": "address of new member"
        }
      },
      "constructor": {
        "details": "Set contract deployer as owner"
      }
    },
    "version": 1
  },
  "userdoc": {
    "kind": "user",
    "methods": {},
    "version": 1
  }
}